{
  "_format": "hh-sol-artifact-1",
  "contractName": "SwapRouter",
  "sourceName": "src/contracts/SwapRouter.sol",
  "abi": [
    {
      "inputs": [
        {
          "internalType": "contract IUniswapV3Router",
          "name": "_uniswapV3Router",
          "type": "address"
        }
      ],
      "stateMutability": "nonpayable",
      "type": "constructor"
    },
    {
      "inputs": [
        {
          "internalType": "address",
          "name": "actual",
          "type": "address"
        },
        {
          "internalType": "address",
          "name": "expected",
          "type": "address"
        }
      ],
      "name": "SwapRouter__AssetInMisMatch",
      "type": "error"
    },
    {
      "inputs": [
        {
          "internalType": "address",
          "name": "actual",
          "type": "address"
        },
        {
          "internalType": "address",
          "name": "expected",
          "type": "address"
        }
      ],
      "name": "SwapRouter__AssetOutMisMatch",
      "type": "error"
    },
    {
      "inputs": [],
      "name": "SwapRouter__SwapReverted",
      "type": "error"
    },
    {
      "inputs": [
        {
          "internalType": "bytes",
          "name": "swapData",
          "type": "bytes"
        },
        {
          "internalType": "address",
          "name": "receiver",
          "type": "address"
        },
        {
          "internalType": "contract ERC20",
          "name": "assetIn",
          "type": "address"
        },
        {
          "internalType": "contract ERC20",
          "name": "assetOut",
          "type": "address"
        }
      ],
      "name": "swap",
      "outputs": [
        {
          "internalType": "uint256",
          "name": "amountOut",
          "type": "uint256"
        }
      ],
      "stateMutability": "nonpayable",
      "type": "function"
    },
    {
      "inputs": [
        {
          "internalType": "bytes",
          "name": "swapData",
          "type": "bytes"
        },
        {
          "internalType": "address",
          "name": "receiver",
          "type": "address"
        },
        {
          "internalType": "contract ERC20",
          "name": "assetIn",
          "type": "address"
        },
        {
          "internalType": "contract ERC20",
          "name": "assetOut",
          "type": "address"
        }
      ],
      "name": "swapWithUniV3",
      "outputs": [
        {
          "internalType": "uint256",
          "name": "amountOut",
          "type": "uint256"
        }
      ],
      "stateMutability": "nonpayable",
      "type": "function"
    },
    {
      "inputs": [],
      "name": "uniswapV3Router",
      "outputs": [
        {
          "internalType": "contract IUniswapV3Router",
          "name": "",
          "type": "address"
        }
      ],
      "stateMutability": "view",
      "type": "function"
    }
  ],
  "bytecode": "0x60a06040523480156200001157600080fd5b5060405162001992380380620019928339818101604052810190620000379190620000f0565b8073ffffffffffffffffffffffffffffffffffffffff1660808173ffffffffffffffffffffffffffffffffffffffff16815250505062000122565b600080fd5b600073ffffffffffffffffffffffffffffffffffffffff82169050919050565b6000620000a48262000077565b9050919050565b6000620000b88262000097565b9050919050565b620000ca81620000ab565b8114620000d657600080fd5b50565b600081519050620000ea81620000bf565b92915050565b60006020828403121562000109576200010862000072565b5b60006200011984828501620000d9565b91505092915050565b6080516118466200014c6000396000818161021a015281816103fa01526104f001526118466000f3fe608060405234801561001057600080fd5b50600436106100415760003560e01c8063299ae48a146100465780632c76d7a6146100765780639d453f8d14610094575b600080fd5b610060600480360381019061005b9190610c2c565b6100c4565b60405161006d9190610cc8565b60405180910390f35b61007e610218565b60405161008b9190610d42565b60405180910390f35b6100ae60048036038101906100a99190610c2c565b61023c565b6040516100bb9190610cc8565b60405180910390f35b60008060003073ffffffffffffffffffffffffffffffffffffffff16639d453f8d60e01b888888886040516024016100ff9493929190610e15565b604051602081830303815290604052907bffffffffffffffffffffffffffffffffffffffffffffffffffffffff19166020820180517bffffffffffffffffffffffffffffffffffffffffffffffffffffffff83818316178352505050506040516101699190610e9d565b600060405180830381855af49150503d80600081146101a4576040519150601f19603f3d011682016040523d82523d6000602084013e6101a9565b606091505b5091509150816101f8576000815111156101c65780518082602001fd5b6040517f8e2cf9de00000000000000000000000000000000000000000000000000000000815260040160405180910390fd5b8080602001905181019061020c9190610ee0565b92505050949350505050565b7f000000000000000000000000000000000000000000000000000000000000000081565b60008060008060008880602001905181019061025891906110e8565b93509350935093508360008151811061027457610273611187565b5b602002602001015173ffffffffffffffffffffffffffffffffffffffff168773ffffffffffffffffffffffffffffffffffffffff161461030857836000815181106102c2576102c1611187565b5b6020026020010151876040517fe53928810000000000000000000000000000000000000000000000000000000081526004016102ff9291906111b6565b60405180910390fd5b8360018551610317919061120e565b8151811061032857610327611187565b5b602002602001015173ffffffffffffffffffffffffffffffffffffffff168673ffffffffffffffffffffffffffffffffffffffff16146103c8578360018551610371919061120e565b8151811061038257610381611187565b5b6020026020010151866040517f47052b670000000000000000000000000000000000000000000000000000000081526004016103bf9291906111b6565b60405180910390fd5b6103f53330848a73ffffffffffffffffffffffffffffffffffffffff166105e1909392919063ffffffff16565b6104407f0000000000000000000000000000000000000000000000000000000000000000838973ffffffffffffffffffffffffffffffffffffffff1661066a9092919063ffffffff16565b600087604051602001610453919061128a565b60405160208183030381529060405290506000600190505b85518110156104ed578185600183610483919061120e565b8151811061049457610493611187565b5b60200260200101518783815181106104af576104ae611187565b5b60200260200101516040516020016104c9939291906112db565b604051602081830303815290604052915080806104e590611314565b91505061046b565b507f000000000000000000000000000000000000000000000000000000000000000073ffffffffffffffffffffffffffffffffffffffff1663c04b8d596040518060a001604052808481526020018c73ffffffffffffffffffffffffffffffffffffffff168152602001603c42610564919061135c565b8152602001868152602001858152506040518263ffffffff1660e01b815260040161058f9190611490565b6020604051808303816000875af11580156105ae573d6000803e3d6000fd5b505050506040513d601f19601f820116820180604052508101906105d29190610ee0565b95505050505050949350505050565b610664846323b872dd60e01b858585604051602401610602939291906114b2565b604051602081830303815290604052907bffffffffffffffffffffffffffffffffffffffffffffffffffffffff19166020820180517bffffffffffffffffffffffffffffffffffffffffffffffffffffffff83818316178352505050506107b9565b50505050565b60008114806106f4575060008373ffffffffffffffffffffffffffffffffffffffff1663dd62ed3e30856040518363ffffffff1660e01b81526004016106b19291906111b6565b602060405180830381865afa1580156106ce573d6000803e3d6000fd5b505050506040513d601f19601f820116820180604052508101906106f29190610ee0565b145b610733576040517f08c379a000000000000000000000000000000000000000000000000000000000815260040161072a9061156c565b60405180910390fd5b6107b48363095ea7b360e01b848460405160240161075292919061158c565b604051602081830303815290604052907bffffffffffffffffffffffffffffffffffffffffffffffffffffffff19166020820180517bffffffffffffffffffffffffffffffffffffffffffffffffffffffff83818316178352505050506107b9565b505050565b600061081b826040518060400160405280602081526020017f5361666545524332303a206c6f772d6c6576656c2063616c6c206661696c65648152508573ffffffffffffffffffffffffffffffffffffffff166108809092919063ffffffff16565b905060008151111561087b578080602001905181019061083b91906115ed565b61087a576040517f08c379a00000000000000000000000000000000000000000000000000000000081526004016108719061168c565b60405180910390fd5b5b505050565b606061088f8484600085610898565b90509392505050565b6060824710156108dd576040517f08c379a00000000000000000000000000000000000000000000000000000000081526004016108d49061171e565b60405180910390fd5b6108e6856109ac565b610925576040517f08c379a000000000000000000000000000000000000000000000000000000000815260040161091c9061178a565b60405180910390fd5b6000808673ffffffffffffffffffffffffffffffffffffffff16858760405161094e9190610e9d565b60006040518083038185875af1925050503d806000811461098b576040519150601f19603f3d011682016040523d82523d6000602084013e610990565b606091505b50915091506109a08282866109cf565b92505050949350505050565b6000808273ffffffffffffffffffffffffffffffffffffffff163b119050919050565b606083156109df57829050610a2f565b6000835111156109f25782518084602001fd5b816040517f08c379a0000000000000000000000000000000000000000000000000000000008152600401610a2691906117ee565b60405180910390fd5b9392505050565b6000604051905090565b600080fd5b600080fd5b600080fd5b600080fd5b6000601f19601f8301169050919050565b7f4e487b7100000000000000000000000000000000000000000000000000000000600052604160045260246000fd5b610a9d82610a54565b810181811067ffffffffffffffff82111715610abc57610abb610a65565b5b80604052505050565b6000610acf610a36565b9050610adb8282610a94565b919050565b600067ffffffffffffffff821115610afb57610afa610a65565b5b610b0482610a54565b9050602081019050919050565b82818337600083830152505050565b6000610b33610b2e84610ae0565b610ac5565b905082815260208101848484011115610b4f57610b4e610a4f565b5b610b5a848285610b11565b509392505050565b600082601f830112610b7757610b76610a4a565b5b8135610b87848260208601610b20565b91505092915050565b600073ffffffffffffffffffffffffffffffffffffffff82169050919050565b6000610bbb82610b90565b9050919050565b610bcb81610bb0565b8114610bd657600080fd5b50565b600081359050610be881610bc2565b92915050565b6000610bf982610bb0565b9050919050565b610c0981610bee565b8114610c1457600080fd5b50565b600081359050610c2681610c00565b92915050565b60008060008060808587031215610c4657610c45610a40565b5b600085013567ffffffffffffffff811115610c6457610c63610a45565b5b610c7087828801610b62565b9450506020610c8187828801610bd9565b9350506040610c9287828801610c17565b9250506060610ca387828801610c17565b91505092959194509250565b6000819050919050565b610cc281610caf565b82525050565b6000602082019050610cdd6000830184610cb9565b92915050565b6000819050919050565b6000610d08610d03610cfe84610b90565b610ce3565b610b90565b9050919050565b6000610d1a82610ced565b9050919050565b6000610d2c82610d0f565b9050919050565b610d3c81610d21565b82525050565b6000602082019050610d576000830184610d33565b92915050565b600081519050919050565b600082825260208201905092915050565b60005b83811015610d97578082015181840152602081019050610d7c565b83811115610da6576000848401525b50505050565b6000610db782610d5d565b610dc18185610d68565b9350610dd1818560208601610d79565b610dda81610a54565b840191505092915050565b610dee81610bb0565b82525050565b6000610dff82610d0f565b9050919050565b610e0f81610df4565b82525050565b60006080820190508181036000830152610e2f8187610dac565b9050610e3e6020830186610de5565b610e4b6040830185610e06565b610e586060830184610e06565b95945050505050565b600081905092915050565b6000610e7782610d5d565b610e818185610e61565b9350610e91818560208601610d79565b80840191505092915050565b6000610ea98284610e6c565b915081905092915050565b610ebd81610caf565b8114610ec857600080fd5b50565b600081519050610eda81610eb4565b92915050565b600060208284031215610ef657610ef5610a40565b5b6000610f0484828501610ecb565b91505092915050565b600067ffffffffffffffff821115610f2857610f27610a65565b5b602082029050602081019050919050565b600080fd5b600081519050610f4d81610bc2565b92915050565b6000610f66610f6184610f0d565b610ac5565b90508083825260208201905060208402830185811115610f8957610f88610f39565b5b835b81811015610fb25780610f9e8882610f3e565b845260208401935050602081019050610f8b565b5050509392505050565b600082601f830112610fd157610fd0610a4a565b5b8151610fe1848260208601610f53565b91505092915050565b600067ffffffffffffffff82111561100557611004610a65565b5b602082029050602081019050919050565b600062ffffff82169050919050565b61102e81611016565b811461103957600080fd5b50565b60008151905061104b81611025565b92915050565b600061106461105f84610fea565b610ac5565b9050808382526020820190506020840283018581111561108757611086610f39565b5b835b818110156110b0578061109c888261103c565b845260208401935050602081019050611089565b5050509392505050565b600082601f8301126110cf576110ce610a4a565b5b81516110df848260208601611051565b91505092915050565b6000806000806080858703121561110257611101610a40565b5b600085015167ffffffffffffffff8111156111205761111f610a45565b5b61112c87828801610fbc565b945050602085015167ffffffffffffffff81111561114d5761114c610a45565b5b611159878288016110ba565b935050604061116a87828801610ecb565b925050606061117b87828801610ecb565b91505092959194509250565b7f4e487b7100000000000000000000000000000000000000000000000000000000600052603260045260246000fd5b60006040820190506111cb6000830185610de5565b6111d86020830184610de5565b9392505050565b7f4e487b7100000000000000000000000000000000000000000000000000000000600052601160045260246000fd5b600061121982610caf565b915061122483610caf565b925082821015611237576112366111df565b5b828203905092915050565b60008160601b9050919050565b600061125a82611242565b9050919050565b600061126c8261124f565b9050919050565b61128461127f82610bb0565b611261565b82525050565b60006112968284611273565b60148201915081905092915050565b60008160e81b9050919050565b60006112bd826112a5565b9050919050565b6112d56112d082611016565b6112b2565b82525050565b60006112e78286610e6c565b91506112f382856112c4565b6003820191506113038284611273565b601482019150819050949350505050565b600061131f82610caf565b91507fffffffffffffffffffffffffffffffffffffffffffffffffffffffffffffffff8203611351576113506111df565b5b600182019050919050565b600061136782610caf565b915061137283610caf565b9250827fffffffffffffffffffffffffffffffffffffffffffffffffffffffffffffffff038211156113a7576113a66111df565b5b828201905092915050565b600082825260208201905092915050565b60006113ce82610d5d565b6113d881856113b2565b93506113e8818560208601610d79565b6113f181610a54565b840191505092915050565b61140581610bb0565b82525050565b61141481610caf565b82525050565b600060a083016000830151848203600086015261143782826113c3565b915050602083015161144c60208601826113fc565b50604083015161145f604086018261140b565b506060830151611472606086018261140b565b506080830151611485608086018261140b565b508091505092915050565b600060208201905081810360008301526114aa818461141a565b905092915050565b60006060820190506114c76000830186610de5565b6114d46020830185610de5565b6114e16040830184610cb9565b949350505050565b600082825260208201905092915050565b7f5361666545524332303a20617070726f76652066726f6d206e6f6e2d7a65726f60008201527f20746f206e6f6e2d7a65726f20616c6c6f77616e636500000000000000000000602082015250565b60006115566036836114e9565b9150611561826114fa565b604082019050919050565b6000602082019050818103600083015261158581611549565b9050919050565b60006040820190506115a16000830185610de5565b6115ae6020830184610cb9565b9392505050565b60008115159050919050565b6115ca816115b5565b81146115d557600080fd5b50565b6000815190506115e7816115c1565b92915050565b60006020828403121561160357611602610a40565b5b6000611611848285016115d8565b91505092915050565b7f5361666545524332303a204552433230206f7065726174696f6e20646964206e60008201527f6f74207375636365656400000000000000000000000000000000000000000000602082015250565b6000611676602a836114e9565b91506116818261161a565b604082019050919050565b600060208201905081810360008301526116a581611669565b9050919050565b7f416464726573733a20696e73756666696369656e742062616c616e636520666f60008201527f722063616c6c0000000000000000000000000000000000000000000000000000602082015250565b60006117086026836114e9565b9150611713826116ac565b604082019050919050565b60006020820190508181036000830152611737816116fb565b9050919050565b7f416464726573733a2063616c6c20746f206e6f6e2d636f6e7472616374000000600082015250565b6000611774601d836114e9565b915061177f8261173e565b602082019050919050565b600060208201905081810360008301526117a381611767565b9050919050565b600081519050919050565b60006117c0826117aa565b6117ca81856114e9565b93506117da818560208601610d79565b6117e381610a54565b840191505092915050565b6000602082019050818103600083015261180881846117b5565b90509291505056fea2646970667358221220b4964412f6acad59d6e79ea6ecd2d129d2028a61b593303a3236320d3dcef33c64736f6c634300080f0033",
  "linkReferences": {},
  "deployedLinkReferences": {}
}