{
  "_format": "hh-sol-artifact-1",
  "contractName": "CellarAdapter",
  "sourceName": "src/contracts/CellarAdapter.sol",
  "abi": [
    {
      "inputs": [
        {
          "internalType": "contract SwapRouter",
          "name": "_swapRouter",
          "type": "address"
        }
      ],
      "stateMutability": "nonpayable",
      "type": "constructor"
    },
    {
      "inputs": [
        {
          "internalType": "uint256",
          "name": "assets",
          "type": "uint256"
        }
      ],
      "name": "_doSwap",
      "outputs": [
        {
          "internalType": "uint256",
          "name": "received",
          "type": "uint256"
        }
      ],
      "stateMutability": "nonpayable",
      "type": "function"
    },
    {
      "inputs": [],
      "name": "swapRouter",
      "outputs": [
        {
          "internalType": "contract SwapRouter",
          "name": "",
          "type": "address"
        }
      ],
      "stateMutability": "view",
      "type": "function"
    }
  ],
  "bytecode": "0x60a06040527375e4dd0587663fce5b2d9af7fbed3ac54342d3db6000806101000a81548173ffffffffffffffffffffffffffffffffffffffff021916908373ffffffffffffffffffffffffffffffffffffffff16021790555073edb95d8037f769b72aaab41deec92903a98c9e16600160006101000a81548173ffffffffffffffffffffffffffffffffffffffff021916908373ffffffffffffffffffffffffffffffffffffffff160217905550731e5341e4b7ed5d0680d9066aac0396f0b1bd1e69600260006101000a81548173ffffffffffffffffffffffffffffffffffffffff021916908373ffffffffffffffffffffffffffffffffffffffff16021790555034801561010e57600080fd5b50604051610b13380380610b13833981810160405281019061013091906101df565b8073ffffffffffffffffffffffffffffffffffffffff1660808173ffffffffffffffffffffffffffffffffffffffff16815250505061020c565b600080fd5b600073ffffffffffffffffffffffffffffffffffffffff82169050919050565b600061019a8261016f565b9050919050565b60006101ac8261018f565b9050919050565b6101bc816101a1565b81146101c757600080fd5b50565b6000815190506101d9816101b3565b92915050565b6000602082840312156101f5576101f461016a565b5b6000610203848285016101ca565b91505092915050565b6080516108e561022e60003960008181610264015261037401526108e56000f3fe608060405234801561001057600080fd5b50600436106100365760003560e01c806306a8e8c21461003b578063c31c9c071461006b575b600080fd5b610055600480360381019061005091906103d1565b610089565b604051610062919061040d565b60405180910390f35b610073610372565b60405161008091906104a7565b60405180910390f35b600080600267ffffffffffffffff8111156100a7576100a66104c2565b5b6040519080825280602002602001820160405280156100d55781602001602082028036833780820191505090505b509050600160009054906101000a900473ffffffffffffffffffffffffffffffffffffffff168160008151811061010f5761010e6104f1565b5b602002602001019073ffffffffffffffffffffffffffffffffffffffff16908173ffffffffffffffffffffffffffffffffffffffff1681525050600260009054906101000a900473ffffffffffffffffffffffffffffffffffffffff16816001815181106101805761017f6104f1565b5b602002602001019073ffffffffffffffffffffffffffffffffffffffff16908173ffffffffffffffffffffffffffffffffffffffff16815250506000600167ffffffffffffffff8111156101d7576101d66104c2565b5b6040519080825280602002602001820160405280156102055781602001602082028036833780820191505090505b509050610bb88160008151811061021f5761021e6104f1565b5b602002602001019062ffffff16908162ffffff1681525050600082828660006040516020016102519493929190610705565b60405160208183030381529060405290507f000000000000000000000000000000000000000000000000000000000000000073ffffffffffffffffffffffffffffffffffffffff1663299ae48a8260008054906101000a900473ffffffffffffffffffffffffffffffffffffffff16600160009054906101000a900473ffffffffffffffffffffffffffffffffffffffff16600260009054906101000a900473ffffffffffffffffffffffffffffffffffffffff166040518563ffffffff1660e01b81526004016103259493929190610821565b6020604051808303816000875af1158015610344573d6000803e3d6000fd5b505050506040513d601f19601f820116820180604052508101906103689190610882565b9350505050919050565b7f000000000000000000000000000000000000000000000000000000000000000081565b600080fd5b6000819050919050565b6103ae8161039b565b81146103b957600080fd5b50565b6000813590506103cb816103a5565b92915050565b6000602082840312156103e7576103e6610396565b5b60006103f5848285016103bc565b91505092915050565b6104078161039b565b82525050565b600060208201905061042260008301846103fe565b92915050565b600073ffffffffffffffffffffffffffffffffffffffff82169050919050565b6000819050919050565b600061046d61046861046384610428565b610448565b610428565b9050919050565b600061047f82610452565b9050919050565b600061049182610474565b9050919050565b6104a181610486565b82525050565b60006020820190506104bc6000830184610498565b92915050565b7f4e487b7100000000000000000000000000000000000000000000000000000000600052604160045260246000fd5b7f4e487b7100000000000000000000000000000000000000000000000000000000600052603260045260246000fd5b600081519050919050565b600082825260208201905092915050565b6000819050602082019050919050565b600061055782610428565b9050919050565b6105678161054c565b82525050565b6000610579838361055e565b60208301905092915050565b6000602082019050919050565b600061059d82610520565b6105a7818561052b565b93506105b28361053c565b8060005b838110156105e35781516105ca888261056d565b97506105d583610585565b9250506001810190506105b6565b5085935050505092915050565b600081519050919050565b600082825260208201905092915050565b6000819050602082019050919050565b600062ffffff82169050919050565b6106348161061c565b82525050565b6000610646838361062b565b60208301905092915050565b6000602082019050919050565b600061066a826105f0565b61067481856105fb565b935061067f8361060c565b8060005b838110156106b0578151610697888261063a565b97506106a283610652565b925050600181019050610683565b5085935050505092915050565b6000819050919050565b600060ff82169050919050565b60006106ef6106ea6106e5846106bd565b610448565b6106c7565b9050919050565b6106ff816106d4565b82525050565b6000608082019050818103600083015261071f8187610592565b90508181036020830152610733818661065f565b905061074260408301856103fe565b61074f60608301846106f6565b95945050505050565b600081519050919050565b600082825260208201905092915050565b60005b83811015610792578082015181840152602081019050610777565b838111156107a1576000848401525b50505050565b6000601f19601f8301169050919050565b60006107c382610758565b6107cd8185610763565b93506107dd818560208601610774565b6107e6816107a7565b840191505092915050565b6107fa8161054c565b82525050565b600061080b82610474565b9050919050565b61081b81610800565b82525050565b6000608082019050818103600083015261083b81876107b8565b905061084a60208301866107f1565b6108576040830185610812565b6108646060830184610812565b95945050505050565b60008151905061087c816103a5565b92915050565b60006020828403121561089857610897610396565b5b60006108a68482850161086d565b9150509291505056fea2646970667358221220bd71ac03208e042a414e405d71a5f03e3cac93a72423f1b9e6f186aba29bfd2d64736f6c634300080f0033",
  "linkReferences": {},
  "deployedLinkReferences": {}
}