{
  "abi": [
    {
      "inputs": [
        {
          "internalType": "address",
          "name": "_originContract",
          "type": "address"
        },
        {
          "internalType": "uint32",
          "name": "_originDomain",
          "type": "uint32"
        },
        {
          "internalType": "contract IConnext",
          "name": "_connext",
          "type": "address"
        }
      ],
      "stateMutability": "nonpayable",
      "type": "constructor"
    },
    {
      "inputs": [],
      "name": "TargetAdapter__onlyExecutor_notExecutor",
      "type": "error"
    },
    {
      "inputs": [],
      "name": "TargetAdapter__onlyOriginSender_notOriginSender",
      "type": "error"
    },
    {
      "anonymous": false,
      "inputs": [
        {
          "indexed": false,
          "internalType": "bytes32",
          "name": "_transferId",
          "type": "bytes32"
        },
        {
          "indexed": false,
          "internalType": "uint256",
          "name": "_amount",
          "type": "uint256"
        },
        {
          "indexed": false,
          "internalType": "address",
          "name": "_asset",
          "type": "address"
        },
        {
          "indexed": false,
          "internalType": "address",
          "name": "_originSender",
          "type": "address"
        },
        {
          "indexed": false,
          "internalType": "uint32",
          "name": "_origin",
          "type": "uint32"
        },
        {
          "indexed": false,
          "internalType": "bytes",
          "name": "_callData",
          "type": "bytes"
        }
      ],
      "name": "XReceive",
      "type": "event"
    },
    {
      "inputs": [],
      "name": "connext",
      "outputs": [
        {
          "internalType": "contract IConnext",
          "name": "",
          "type": "address"
        }
      ],
      "stateMutability": "view",
      "type": "function"
    },
    {
      "inputs": [],
      "name": "originContract",
      "outputs": [
        {
          "internalType": "address",
          "name": "",
          "type": "address"
        }
      ],
      "stateMutability": "view",
      "type": "function"
    },
    {
      "inputs": [],
      "name": "originDomain",
      "outputs": [
        {
          "internalType": "uint32",
          "name": "",
          "type": "uint32"
        }
      ],
      "stateMutability": "view",
      "type": "function"
    },
    {
      "inputs": [],
      "name": "value",
      "outputs": [
        {
          "internalType": "uint256",
          "name": "",
          "type": "uint256"
        }
      ],
      "stateMutability": "view",
      "type": "function"
    },
    {
      "inputs": [
        {
          "internalType": "bytes32",
          "name": "_transferId",
          "type": "bytes32"
        },
        {
          "internalType": "uint256",
          "name": "_amount",
          "type": "uint256"
        },
        {
          "internalType": "address",
          "name": "_asset",
          "type": "address"
        },
        {
          "internalType": "address",
          "name": "_originSender",
          "type": "address"
        },
        {
          "internalType": "uint32",
          "name": "_origin",
          "type": "uint32"
        },
        {
          "internalType": "bytes",
          "name": "_callData",
          "type": "bytes"
        }
      ],
      "name": "xReceive",
      "outputs": [
        {
          "internalType": "bytes",
          "name": "",
          "type": "bytes"
        }
      ],
      "stateMutability": "nonpayable",
      "type": "function"
    }
  ],
  "bytecode": {
    "object": "0x60a060405234801561001057600080fd5b5060405161060338038061060383398101604081905261002f91610081565b6001805463ffffffff909316600160a01b026001600160c01b03199093166001600160a01b039485161792909217909155166080526100d7565b6001600160a01b038116811461007e57600080fd5b50565b60008060006060848603121561009657600080fd5b83516100a181610069565b602085015190935063ffffffff811681146100bb57600080fd5b60408501519092506100cc81610069565b809150509250925092565b6080516105116100f2600039600061010f01526105116000f3fe608060405234801561001057600080fd5b50600436106100675760003560e01c8063cee85d7e11610050578063cee85d7e146100cd578063de4b05481461010a578063fd614f411461013157600080fd5b80633fa4f2451461006c5780639afb416c14610088575b600080fd5b61007560005481565b6040519081526020015b60405180910390f35b6001546100a89073ffffffffffffffffffffffffffffffffffffffff1681565b60405173ffffffffffffffffffffffffffffffffffffffff909116815260200161007f565b6001546100f59074010000000000000000000000000000000000000000900463ffffffff1681565b60405163ffffffff909116815260200161007f565b6100a87f000000000000000000000000000000000000000000000000000000000000000081565b61014461013f3660046102a4565b610151565b60405161007f91906103ed565b60606000828060200190518101906101699190610407565b90507fd981418c8be3562402949c75c59a158337cb8d51cada076337eacda3badb3d188888888888886040516101a49695949392919061047e565b60405180910390a1509695505050505050565b803573ffffffffffffffffffffffffffffffffffffffff811681146101db57600080fd5b919050565b7f4e487b7100000000000000000000000000000000000000000000000000000000600052604160045260246000fd5b604051601f82017fffffffffffffffffffffffffffffffffffffffffffffffffffffffffffffffe016810167ffffffffffffffff81118282101715610256576102566101e0565b604052919050565b600067ffffffffffffffff821115610278576102786101e0565b50601f017fffffffffffffffffffffffffffffffffffffffffffffffffffffffffffffffe01660200190565b60008060008060008060c087890312156102bd57600080fd5b86359550602087013594506102d4604088016101b7565b93506102e2606088016101b7565b9250608087013563ffffffff811681146102fb57600080fd5b915060a087013567ffffffffffffffff81111561031757600080fd5b8701601f8101891361032857600080fd5b803561033b6103368261025e565b61020f565b8181528a602083850101111561035057600080fd5b816020840160208301376000602083830101528093505050509295509295509295565b60005b8381101561038e578181015183820152602001610376565b8381111561039d576000848401525b50505050565b600081518084526103bb816020860160208601610373565b601f017fffffffffffffffffffffffffffffffffffffffffffffffffffffffffffffffe0169290920160200192915050565b60208152600061040060208301846103a3565b9392505050565b60006020828403121561041957600080fd5b815167ffffffffffffffff81111561043057600080fd5b8201601f8101841361044157600080fd5b805161044f6103368261025e565b81815285602083850101111561046457600080fd5b610475826020830160208601610373565b95945050505050565b868152856020820152600073ffffffffffffffffffffffffffffffffffffffff808716604084015280861660608401525063ffffffff8416608083015260c060a08301526104cf60c08301846103a3565b9897505050505050505056fea2646970667358221220784bda24e074dffa9d19f0f4ab5a05c11826619071618615b7efb7c5f6343f8e64736f6c634300080f0033",
    "linkReferences": {}
  },
  "methodIdentifiers": {
    "connext()": "de4b0548",
    "originContract()": "9afb416c",
    "originDomain()": "cee85d7e",
    "value()": "3fa4f245",
    "xReceive(bytes32,uint256,address,address,uint32,bytes)": "fd614f41"
  },
  "id": 40
}