{
  "abi": [
    {
      "inputs": [
        {
          "internalType": "contract SwapRouter",
          "name": "_swapRouter",
          "type": "address"
        }
      ],
      "stateMutability": "nonpayable",
      "type": "constructor"
    },
    {
      "inputs": [
        {
          "internalType": "uint256",
          "name": "assets",
          "type": "uint256"
        }
      ],
      "name": "_doSwap",
      "outputs": [
        {
          "internalType": "uint256",
          "name": "received",
          "type": "uint256"
        }
      ],
      "stateMutability": "nonpayable",
      "type": "function"
    },
    {
      "inputs": [],
      "name": "swapRouter",
      "outputs": [
        {
          "internalType": "contract SwapRouter",
          "name": "",
          "type": "address"
        }
      ],
      "stateMutability": "view",
      "type": "function"
    }
  ],
  "bytecode": {
    "object": "0x60a0604052600080546001600160a01b03199081167375e4dd0587663fce5b2d9af7fbed3ac54342d3db1790915560018054821673edb95d8037f769b72aaab41deec92903a98c9e1617905560028054909116731e5341e4b7ed5d0680d9066aac0396f0b1bd1e6917905534801561007657600080fd5b506040516105c93803806105c9833981016040819052610095916100a6565b6001600160a01b03166080526100d6565b6000602082840312156100b857600080fd5b81516001600160a01b03811681146100cf57600080fd5b9392505050565b6080516104d26100f7600039600081816066015261023d01526104d26000f3fe608060405234801561001057600080fd5b50600436106100365760003560e01c806306a8e8c21461003b578063c31c9c0714610061575b600080fd5b61004e6100493660046102ca565b6100ad565b6040519081526020015b60405180910390f35b6100887f000000000000000000000000000000000000000000000000000000000000000081565b60405173ffffffffffffffffffffffffffffffffffffffff9091168152602001610058565b604080516002808252606082018352600092839291906020830190803683375050600154825192935073ffffffffffffffffffffffffffffffffffffffff16918391506000906100ff576100ff6102e3565b73ffffffffffffffffffffffffffffffffffffffff928316602091820292909201015260025482519116908290600190811061013d5761013d6102e3565b73ffffffffffffffffffffffffffffffffffffffff9290921660209283029190910190910152604080516001808252818301909252600091816020016020820280368337019050509050610bb88160008151811061019d5761019d6102e3565b62ffffff9092166020928302919091018201526040516000916101c891859185918991869101610312565b604080517fffffffffffffffffffffffffffffffffffffffffffffffffffffffffffffffe0818403018152908290526000546001546002547f299ae48a00000000000000000000000000000000000000000000000000000000855292945073ffffffffffffffffffffffffffffffffffffffff7f000000000000000000000000000000000000000000000000000000000000000081169463299ae48a9461027e94889490841693908116929116906004016103b7565b6020604051808303816000875af115801561029d573d6000803e3d6000fd5b505050506040513d601f19601f820116820180604052508101906102c19190610483565b95945050505050565b6000602082840312156102dc57600080fd5b5035919050565b7f4e487b7100000000000000000000000000000000000000000000000000000000600052603260045260246000fd5b6080808252855190820181905260009060209060a0840190828901845b8281101561036157815173ffffffffffffffffffffffffffffffffffffffff168452928401929084019060010161032f565b5050508381038285015286518082528783019183019060005b8181101561039b57835162ffffff168352928401929184019160010161037a565b50506040850187905260ff8616606086015292506102c1915050565b608081526000855180608084015260005b818110156103e557602081890181015160a08684010152016103c8565b818111156103f757600060a083860101525b50601f017fffffffffffffffffffffffffffffffffffffffffffffffffffffffffffffffe016820160a0019050610446602083018673ffffffffffffffffffffffffffffffffffffffff169052565b73ffffffffffffffffffffffffffffffffffffffff8416604083015273ffffffffffffffffffffffffffffffffffffffff831660608301526102c1565b60006020828403121561049557600080fd5b505191905056fea2646970667358221220de3be13e9a4778ece9ca24b9b22802abef776d007798eefe8e612cd2974e3d1564736f6c634300080f0033",
    "linkReferences": {}
  },
  "methodIdentifiers": {
    "_doSwap(uint256)": "06a8e8c2",
    "swapRouter()": "c31c9c07"
  },
  "id": 12
}