{
  "abi": [
    {
      "inputs": [],
      "stateMutability": "nonpayable",
      "type": "constructor"
    },
    {
      "inputs": [
        {
          "internalType": "address",
          "name": "actual",
          "type": "address"
        },
        {
          "internalType": "address",
          "name": "expected",
          "type": "address"
        }
      ],
      "name": "SwapRouter__AssetInMisMatch",
      "type": "error"
    },
    {
      "inputs": [
        {
          "internalType": "address",
          "name": "actual",
          "type": "address"
        },
        {
          "internalType": "address",
          "name": "expected",
          "type": "address"
        }
      ],
      "name": "SwapRouter__AssetOutMisMatch",
      "type": "error"
    },
    {
      "inputs": [],
      "name": "SwapRouter__SwapReverted",
      "type": "error"
    },
    {
      "inputs": [
        {
          "internalType": "uint256",
          "name": "amount",
          "type": "uint256"
        }
      ],
      "name": "_doSwap",
      "outputs": [
        {
          "internalType": "uint256",
          "name": "received",
          "type": "uint256"
        }
      ],
      "stateMutability": "nonpayable",
      "type": "function"
    },
    {
      "inputs": [
        {
          "internalType": "bytes",
          "name": "swapData",
          "type": "bytes"
        },
        {
          "internalType": "contract ERC20",
          "name": "assetIn",
          "type": "address"
        },
        {
          "internalType": "contract ERC20",
          "name": "assetOut",
          "type": "address"
        }
      ],
      "name": "swapWithUniV3",
      "outputs": [
        {
          "internalType": "uint256",
          "name": "amountOut",
          "type": "uint256"
        }
      ],
      "stateMutability": "nonpayable",
      "type": "function"
    },
    {
      "inputs": [],
      "name": "uniswapV3Router",
      "outputs": [
        {
          "internalType": "contract IUniswapV3Router",
          "name": "",
          "type": "address"
        }
      ],
      "stateMutability": "view",
      "type": "function"
    }
  ],
  "bytecode": {
    "object": "0x60a0604052600080546001600160a01b03199081167375e4dd0587663fce5b2d9af7fbed3ac54342d3db17909155600180548216737ea6ea49b0b0ae9c5db7907d139d9cd3439862a11790556002805490911673b4fbf271143f4fbf7b91a5ded31805e42b2208d617905534801561007657600080fd5b5073e592427a0aece92de3edee1f18e0157c058615646080526080516112116100b76000396000818160710152818161044b015261056301526112116000f3fe608060405234801561001057600080fd5b50600436106100415760003560e01c806306a8e8c2146100465780632c76d7a61461006c578063f934a0dd146100b8575b600080fd5b610059610054366004610b97565b6100cb565b6040519081526020015b60405180910390f35b6100937f000000000000000000000000000000000000000000000000000000000000000081565b60405173ffffffffffffffffffffffffffffffffffffffff9091168152602001610063565b6100596100c6366004610c63565b61024a565b604080516002808252606082018352600092839291906020830190803683375050600154825192935073ffffffffffffffffffffffffffffffffffffffff169183915060009061011d5761011d610d37565b73ffffffffffffffffffffffffffffffffffffffff928316602091820292909201015260025482519116908290600190811061015b5761015b610d37565b73ffffffffffffffffffffffffffffffffffffffff92909216602092830291909101909101526040805160018082528183019092526000918160200160208202803683370190505090506000816000815181106101ba576101ba610d37565b62ffffff9092166020928302919091018201526040516000916101e591859185918991869101610d66565b604080517fffffffffffffffffffffffffffffffffffffffffffffffffffffffffffffffe081840301815291905260015460025491925061024191839173ffffffffffffffffffffffffffffffffffffffff908116911661024a565b95945050505050565b6000806000806000878060200190518101906102669190610eac565b93509350935093508360008151811061028157610281610d37565b602002602001015173ffffffffffffffffffffffffffffffffffffffff168773ffffffffffffffffffffffffffffffffffffffff161461033657836000815181106102ce576102ce610d37565b6020026020010151876040517fe539288100000000000000000000000000000000000000000000000000000000815260040161032d92919073ffffffffffffffffffffffffffffffffffffffff92831681529116602082015260400190565b60405180910390fd5b83600185516103459190610fb0565b8151811061035557610355610d37565b602002602001015173ffffffffffffffffffffffffffffffffffffffff168673ffffffffffffffffffffffffffffffffffffffff161461040d57836001855161039e9190610fb0565b815181106103ae576103ae610d37565b6020026020010151866040517f47052b6700000000000000000000000000000000000000000000000000000000815260040161032d92919073ffffffffffffffffffffffffffffffffffffffff92831681529116602082015260400190565b61042f73ffffffffffffffffffffffffffffffffffffffff8816333085610613565b61047073ffffffffffffffffffffffffffffffffffffffff88167f0000000000000000000000000000000000000000000000000000000000000000846106f5565b60408051606089901b7fffffffffffffffffffffffffffffffffffffffff00000000000000000000000016602082015281516014818303018152603490910190915260015b85518110156105335781856104cb600184610fb0565b815181106104db576104db610d37565b60200260200101518783815181106104f5576104f5610d37565b602002602001015160405160200161050f93929190610ff3565b6040516020818303038152906040529150808061052b9061106a565b9150506104b5565b506040805160a08101825282815260005473ffffffffffffffffffffffffffffffffffffffff90811660208301527f0000000000000000000000000000000000000000000000000000000000000000169163c04b8d599190810161059842603c6110a2565b8152602001868152602001858152506040518263ffffffff1660e01b81526004016105c39190611104565b6020604051808303816000875af11580156105e2573d6000803e3d6000fd5b505050506040513d601f19601f82011682018060405250810190610606919061116a565b9998505050505050505050565b60405173ffffffffffffffffffffffffffffffffffffffff808516602483015283166044820152606481018290526106ef9085907f23b872dd00000000000000000000000000000000000000000000000000000000906084015b604080517fffffffffffffffffffffffffffffffffffffffffffffffffffffffffffffffe08184030181529190526020810180517bffffffffffffffffffffffffffffffffffffffffffffffffffffffff167fffffffff000000000000000000000000000000000000000000000000000000009093169290921790915261087c565b50505050565b80158061079557506040517fdd62ed3e00000000000000000000000000000000000000000000000000000000815230600482015273ffffffffffffffffffffffffffffffffffffffff838116602483015284169063dd62ed3e90604401602060405180830381865afa15801561076f573d6000803e3d6000fd5b505050506040513d601f19601f82011682018060405250810190610793919061116a565b155b610821576040517f08c379a000000000000000000000000000000000000000000000000000000000815260206004820152603660248201527f5361666545524332303a20617070726f76652066726f6d206e6f6e2d7a65726f60448201527f20746f206e6f6e2d7a65726f20616c6c6f77616e636500000000000000000000606482015260840161032d565b60405173ffffffffffffffffffffffffffffffffffffffff83166024820152604481018290526108779084907f095ea7b3000000000000000000000000000000000000000000000000000000009060640161066d565b505050565b60006108de826040518060400160405280602081526020017f5361666545524332303a206c6f772d6c6576656c2063616c6c206661696c65648152508573ffffffffffffffffffffffffffffffffffffffff166109889092919063ffffffff16565b80519091501561087757808060200190518101906108fc9190611183565b610877576040517f08c379a000000000000000000000000000000000000000000000000000000000815260206004820152602a60248201527f5361666545524332303a204552433230206f7065726174696f6e20646964206e60448201527f6f74207375636365656400000000000000000000000000000000000000000000606482015260840161032d565b6060610997848460008561099f565b949350505050565b606082471015610a31576040517f08c379a000000000000000000000000000000000000000000000000000000000815260206004820152602660248201527f416464726573733a20696e73756666696369656e742062616c616e636520666f60448201527f722063616c6c0000000000000000000000000000000000000000000000000000606482015260840161032d565b6000808673ffffffffffffffffffffffffffffffffffffffff168587604051610a5a91906111ac565b60006040518083038185875af1925050503d8060008114610a97576040519150601f19603f3d011682016040523d82523d6000602084013e610a9c565b606091505b5091509150610aad87838387610ab8565b979650505050505050565b60608315610b4e578251600003610b475773ffffffffffffffffffffffffffffffffffffffff85163b610b47576040517f08c379a000000000000000000000000000000000000000000000000000000000815260206004820152601d60248201527f416464726573733a2063616c6c20746f206e6f6e2d636f6e7472616374000000604482015260640161032d565b5081610997565b6109978383815115610b635781518083602001fd5b806040517f08c379a000000000000000000000000000000000000000000000000000000000815260040161032d91906111c8565b600060208284031215610ba957600080fd5b5035919050565b7f4e487b7100000000000000000000000000000000000000000000000000000000600052604160045260246000fd5b604051601f82017fffffffffffffffffffffffffffffffffffffffffffffffffffffffffffffffe016810167ffffffffffffffff81118282101715610c2657610c26610bb0565b604052919050565b73ffffffffffffffffffffffffffffffffffffffff81168114610c5057600080fd5b50565b8035610c5e81610c2e565b919050565b600080600060608486031215610c7857600080fd5b833567ffffffffffffffff80821115610c9057600080fd5b818601915086601f830112610ca457600080fd5b8135602082821115610cb857610cb8610bb0565b610ce8817fffffffffffffffffffffffffffffffffffffffffffffffffffffffffffffffe0601f85011601610bdf565b92508183528881838601011115610cfe57600080fd5b81818501828501376000818385010152829650610d1c818901610c53565b955050505050610d2e60408501610c53565b90509250925092565b7f4e487b7100000000000000000000000000000000000000000000000000000000600052603260045260246000fd5b6080808252855190820181905260009060209060a0840190828901845b82811015610db557815173ffffffffffffffffffffffffffffffffffffffff1684529284019290840190600101610d83565b5050508381038285015286518082528783019183019060005b81811015610def57835162ffffff1683529284019291840191600101610dce565b50506040850187905260ff861660608601529250610241915050565b600067ffffffffffffffff821115610e2557610e25610bb0565b5060051b60200190565b600082601f830112610e4057600080fd5b81516020610e55610e5083610e0b565b610bdf565b82815260059290921b84018101918181019086841115610e7457600080fd5b8286015b84811015610ea157805162ffffff81168114610e945760008081fd5b8352918301918301610e78565b509695505050505050565b60008060008060808587031215610ec257600080fd5b845167ffffffffffffffff80821115610eda57600080fd5b818701915087601f830112610eee57600080fd5b81516020610efe610e5083610e0b565b82815260059290921b8401810191818101908b841115610f1d57600080fd5b948201945b83861015610f44578551610f3581610c2e565b82529482019490820190610f22565b918a0151919850909350505080821115610f5d57600080fd5b50610f6a87828801610e2f565b604087015160609097015195989097509350505050565b7f4e487b7100000000000000000000000000000000000000000000000000000000600052601160045260246000fd5b600082821015610fc257610fc2610f81565b500390565b60005b83811015610fe2578181015183820152602001610fca565b838111156106ef5750506000910152565b60008451611005818460208901610fc7565b60e89490941b7fffffff0000000000000000000000000000000000000000000000000000000000169190930190815260609190911b7fffffffffffffffffffffffffffffffffffffffff00000000000000000000000016600382015260170192915050565b60007fffffffffffffffffffffffffffffffffffffffffffffffffffffffffffffffff820361109b5761109b610f81565b5060010190565b600082198211156110b5576110b5610f81565b500190565b600081518084526110d2816020860160208601610fc7565b601f017fffffffffffffffffffffffffffffffffffffffffffffffffffffffffffffffe0169290920160200192915050565b602081526000825160a0602084015261112060c08401826110ba565b905073ffffffffffffffffffffffffffffffffffffffff60208501511660408401526040840151606084015260608401516080840152608084015160a08401528091505092915050565b60006020828403121561117c57600080fd5b5051919050565b60006020828403121561119557600080fd5b815180151581146111a557600080fd5b9392505050565b600082516111be818460208701610fc7565b9190910192915050565b6020815260006111a560208301846110ba56fea26469706673582212200431f4c0f4923dae8ee52919ae3025310c5069fe644c832752647c0b3751b40264736f6c634300080f0033",
    "linkReferences": {}
  },
  "methodIdentifiers": {
    "_doSwap(uint256)": "06a8e8c2",
    "swapWithUniV3(bytes,address,address)": "f934a0dd",
    "uniswapV3Router()": "2c76d7a6"
  },
  "id": 36
}