{
  "abi": [
    {
      "inputs": [
        {
          "internalType": "contract IUniswapV3Router",
          "name": "_uniswapV3Router",
          "type": "address"
        }
      ],
      "stateMutability": "nonpayable",
      "type": "constructor"
    },
    {
      "inputs": [
        {
          "internalType": "address",
          "name": "actual",
          "type": "address"
        },
        {
          "internalType": "address",
          "name": "expected",
          "type": "address"
        }
      ],
      "name": "SwapRouter__AssetInMisMatch",
      "type": "error"
    },
    {
      "inputs": [
        {
          "internalType": "address",
          "name": "actual",
          "type": "address"
        },
        {
          "internalType": "address",
          "name": "expected",
          "type": "address"
        }
      ],
      "name": "SwapRouter__AssetOutMisMatch",
      "type": "error"
    },
    {
      "inputs": [],
      "name": "SwapRouter__SwapReverted",
      "type": "error"
    },
    {
      "inputs": [
        {
          "internalType": "bytes",
          "name": "swapData",
          "type": "bytes"
        },
        {
          "internalType": "address",
          "name": "receiver",
          "type": "address"
        },
        {
          "internalType": "contract ERC20",
          "name": "assetIn",
          "type": "address"
        },
        {
          "internalType": "contract ERC20",
          "name": "assetOut",
          "type": "address"
        }
      ],
      "name": "swap",
      "outputs": [
        {
          "internalType": "uint256",
          "name": "amountOut",
          "type": "uint256"
        }
      ],
      "stateMutability": "nonpayable",
      "type": "function"
    },
    {
      "inputs": [
        {
          "internalType": "bytes",
          "name": "swapData",
          "type": "bytes"
        },
        {
          "internalType": "address",
          "name": "receiver",
          "type": "address"
        },
        {
          "internalType": "contract ERC20",
          "name": "assetIn",
          "type": "address"
        },
        {
          "internalType": "contract ERC20",
          "name": "assetOut",
          "type": "address"
        }
      ],
      "name": "swapWithUniV3",
      "outputs": [
        {
          "internalType": "uint256",
          "name": "amountOut",
          "type": "uint256"
        }
      ],
      "stateMutability": "nonpayable",
      "type": "function"
    },
    {
      "inputs": [],
      "name": "uniswapV3Router",
      "outputs": [
        {
          "internalType": "contract IUniswapV3Router",
          "name": "",
          "type": "address"
        }
      ],
      "stateMutability": "view",
      "type": "function"
    }
  ],
  "bytecode": {
    "object": "0x60a060405234801561001057600080fd5b5060405161123838038061123883398101604081905261002f91610040565b6001600160a01b0316608052610070565b60006020828403121561005257600080fd5b81516001600160a01b038116811461006957600080fd5b9392505050565b6080516111a06100986000396000818160710152818161043b015261052601526111a06000f3fe608060405234801561001057600080fd5b50600436106100415760003560e01c8063299ae48a146100465780632c76d7a61461006c5780639d453f8d146100b8575b600080fd5b610059610054366004610c3d565b6100cb565b6040519081526020015b60405180910390f35b6100937f000000000000000000000000000000000000000000000000000000000000000081565b60405173ffffffffffffffffffffffffffffffffffffffff9091168152602001610063565b6100596100c6366004610c3d565b61023a565b60008060003073ffffffffffffffffffffffffffffffffffffffff16639d453f8d60e01b888888886040516024016101069493929190610d98565b604080517fffffffffffffffffffffffffffffffffffffffffffffffffffffffffffffffe08184030181529181526020820180517bffffffffffffffffffffffffffffffffffffffffffffffffffffffff167fffffffff0000000000000000000000000000000000000000000000000000000090941693909317909252905161018f9190610de1565b600060405180830381855af49150503d80600081146101ca576040519150601f19603f3d011682016040523d82523d6000602084013e6101cf565b606091505b50915091508161021b578051156101e95780518082602001fd5b6040517f8e2cf9de00000000000000000000000000000000000000000000000000000000815260040160405180910390fd5b8080602001905181019061022f9190610dfd565b979650505050505050565b6000806000806000888060200190518101906102569190610eb7565b93509350935093508360008151811061027157610271610f8c565b602002602001015173ffffffffffffffffffffffffffffffffffffffff168773ffffffffffffffffffffffffffffffffffffffff161461032657836000815181106102be576102be610f8c565b6020026020010151876040517fe539288100000000000000000000000000000000000000000000000000000000815260040161031d92919073ffffffffffffffffffffffffffffffffffffffff92831681529116602082015260400190565b60405180910390fd5b83600185516103359190610fea565b8151811061034557610345610f8c565b602002602001015173ffffffffffffffffffffffffffffffffffffffff168673ffffffffffffffffffffffffffffffffffffffff16146103fd57836001855161038e9190610fea565b8151811061039e5761039e610f8c565b6020026020010151866040517f47052b6700000000000000000000000000000000000000000000000000000000815260040161031d92919073ffffffffffffffffffffffffffffffffffffffff92831681529116602082015260400190565b61041f73ffffffffffffffffffffffffffffffffffffffff8816333085610616565b61046073ffffffffffffffffffffffffffffffffffffffff88167f0000000000000000000000000000000000000000000000000000000000000000846106f8565b60408051606089901b7fffffffffffffffffffffffffffffffffffffffff00000000000000000000000016602082015281516014818303018152603490910190915260015b85518110156105235781856104bb600184610fea565b815181106104cb576104cb610f8c565b60200260200101518783815181106104e5576104e5610f8c565b60200260200101516040516020016104ff93929190611001565b6040516020818303038152906040529150808061051b90611078565b9150506104a5565b507f000000000000000000000000000000000000000000000000000000000000000073ffffffffffffffffffffffffffffffffffffffff1663c04b8d596040518060a001604052808481526020018c73ffffffffffffffffffffffffffffffffffffffff16815260200142603c61059a91906110b0565b8152602001868152602001858152506040518263ffffffff1660e01b81526004016105c591906110c8565b6020604051808303816000875af11580156105e4573d6000803e3d6000fd5b505050506040513d601f19601f820116820180604052508101906106089190610dfd565b9a9950505050505050505050565b60405173ffffffffffffffffffffffffffffffffffffffff808516602483015283166044820152606481018290526106f29085907f23b872dd00000000000000000000000000000000000000000000000000000000906084015b604080517fffffffffffffffffffffffffffffffffffffffffffffffffffffffffffffffe08184030181529190526020810180517bffffffffffffffffffffffffffffffffffffffffffffffffffffffff167fffffffff000000000000000000000000000000000000000000000000000000009093169290921790915261087f565b50505050565b80158061079857506040517fdd62ed3e00000000000000000000000000000000000000000000000000000000815230600482015273ffffffffffffffffffffffffffffffffffffffff838116602483015284169063dd62ed3e90604401602060405180830381865afa158015610772573d6000803e3d6000fd5b505050506040513d601f19601f820116820180604052508101906107969190610dfd565b155b610824576040517f08c379a000000000000000000000000000000000000000000000000000000000815260206004820152603660248201527f5361666545524332303a20617070726f76652066726f6d206e6f6e2d7a65726f60448201527f20746f206e6f6e2d7a65726f20616c6c6f77616e636500000000000000000000606482015260840161031d565b60405173ffffffffffffffffffffffffffffffffffffffff831660248201526044810182905261087a9084907f095ea7b30000000000000000000000000000000000000000000000000000000090606401610670565b505050565b60006108e1826040518060400160405280602081526020017f5361666545524332303a206c6f772d6c6576656c2063616c6c206661696c65648152508573ffffffffffffffffffffffffffffffffffffffff1661098b9092919063ffffffff16565b80519091501561087a57808060200190518101906108ff919061112e565b61087a576040517f08c379a000000000000000000000000000000000000000000000000000000000815260206004820152602a60248201527f5361666545524332303a204552433230206f7065726174696f6e20646964206e60448201527f6f74207375636365656400000000000000000000000000000000000000000000606482015260840161031d565b606061099a84846000856109a2565b949350505050565b606082471015610a34576040517f08c379a000000000000000000000000000000000000000000000000000000000815260206004820152602660248201527f416464726573733a20696e73756666696369656e742062616c616e636520666f60448201527f722063616c6c0000000000000000000000000000000000000000000000000000606482015260840161031d565b6000808673ffffffffffffffffffffffffffffffffffffffff168587604051610a5d9190610de1565b60006040518083038185875af1925050503d8060008114610a9a576040519150601f19603f3d011682016040523d82523d6000602084013e610a9f565b606091505b509150915061022f8783838760608315610b41578251600003610b3a5773ffffffffffffffffffffffffffffffffffffffff85163b610b3a576040517f08c379a000000000000000000000000000000000000000000000000000000000815260206004820152601d60248201527f416464726573733a2063616c6c20746f206e6f6e2d636f6e7472616374000000604482015260640161031d565b508161099a565b61099a8383815115610b565781518083602001fd5b806040517f08c379a000000000000000000000000000000000000000000000000000000000815260040161031d9190611157565b7f4e487b7100000000000000000000000000000000000000000000000000000000600052604160045260246000fd5b604051601f82017fffffffffffffffffffffffffffffffffffffffffffffffffffffffffffffffe016810167ffffffffffffffff81118282101715610c0057610c00610b8a565b604052919050565b73ffffffffffffffffffffffffffffffffffffffff81168114610c2a57600080fd5b50565b8035610c3881610c08565b919050565b60008060008060808587031215610c5357600080fd5b843567ffffffffffffffff80821115610c6b57600080fd5b818701915087601f830112610c7f57600080fd5b8135602082821115610c9357610c93610b8a565b610cc3817fffffffffffffffffffffffffffffffffffffffffffffffffffffffffffffffe0601f85011601610bb9565b92508183528981838601011115610cd957600080fd5b81818501828501376000818385010152829750610cf7818a01610c2d565b965050505050610d0960408601610c2d565b9150610d1760608601610c2d565b905092959194509250565b60005b83811015610d3d578181015183820152602001610d25565b838111156106f25750506000910152565b60008151808452610d66816020860160208601610d22565b601f017fffffffffffffffffffffffffffffffffffffffffffffffffffffffffffffffe0169290920160200192915050565b608081526000610dab6080830187610d4e565b73ffffffffffffffffffffffffffffffffffffffff95861660208401529385166040830152509216606090920191909152919050565b60008251610df3818460208701610d22565b9190910192915050565b600060208284031215610e0f57600080fd5b5051919050565b600067ffffffffffffffff821115610e3057610e30610b8a565b5060051b60200190565b600082601f830112610e4b57600080fd5b81516020610e60610e5b83610e16565b610bb9565b82815260059290921b84018101918181019086841115610e7f57600080fd5b8286015b84811015610eac57805162ffffff81168114610e9f5760008081fd5b8352918301918301610e83565b509695505050505050565b60008060008060808587031215610ecd57600080fd5b845167ffffffffffffffff80821115610ee557600080fd5b818701915087601f830112610ef957600080fd5b81516020610f09610e5b83610e16565b82815260059290921b8401810191818101908b841115610f2857600080fd5b948201945b83861015610f4f578551610f4081610c08565b82529482019490820190610f2d565b918a0151919850909350505080821115610f6857600080fd5b50610f7587828801610e3a565b604087015160609097015195989097509350505050565b7f4e487b7100000000000000000000000000000000000000000000000000000000600052603260045260246000fd5b7f4e487b7100000000000000000000000000000000000000000000000000000000600052601160045260246000fd5b600082821015610ffc57610ffc610fbb565b500390565b60008451611013818460208901610d22565b60e89490941b7fffffff0000000000000000000000000000000000000000000000000000000000169190930190815260609190911b7fffffffffffffffffffffffffffffffffffffffff00000000000000000000000016600382015260170192915050565b60007fffffffffffffffffffffffffffffffffffffffffffffffffffffffffffffffff82036110a9576110a9610fbb565b5060010190565b600082198211156110c3576110c3610fbb565b500190565b602081526000825160a060208401526110e460c0840182610d4e565b905073ffffffffffffffffffffffffffffffffffffffff60208501511660408401526040840151606084015260608401516080840152608084015160a08401528091505092915050565b60006020828403121561114057600080fd5b8151801515811461115057600080fd5b9392505050565b6020815260006111506020830184610d4e56fea264697066735822122093b2f0d631501d242ccc3b37794fbbd58c91360bd452289fa4e2d998f2394d5464736f6c634300080f0033",
    "linkReferences": {}
  },
  "methodIdentifiers": {
    "swap(bytes,address,address,address)": "299ae48a",
    "swapWithUniV3(bytes,address,address,address)": "9d453f8d",
    "uniswapV3Router()": "2c76d7a6"
  },
  "id": 39
}