{
  "abi": [
    {
      "inputs": [
        {
          "internalType": "contract IConnext",
          "name": "_connext",
          "type": "address"
        }
      ],
      "stateMutability": "nonpayable",
      "type": "constructor"
    },
    {
      "inputs": [],
      "name": "connext",
      "outputs": [
        {
          "internalType": "contract IConnext",
          "name": "",
          "type": "address"
        }
      ],
      "stateMutability": "view",
      "type": "function"
    },
    {
      "inputs": [
        {
          "internalType": "address",
          "name": "target",
          "type": "address"
        },
        {
          "internalType": "uint32",
          "name": "destinationDomain",
          "type": "uint32"
        },
        {
          "internalType": "string",
          "name": "newGreeting",
          "type": "string"
        },
        {
          "internalType": "uint256",
          "name": "relayerFee",
          "type": "uint256"
        }
      ],
      "name": "updateGreeting",
      "outputs": [],
      "stateMutability": "payable",
      "type": "function"
    },
    {
      "inputs": [
        {
          "internalType": "uint32",
          "name": "destinationDomain",
          "type": "uint32"
        },
        {
          "internalType": "address",
          "name": "asset",
          "type": "address"
        },
        {
          "internalType": "uint256",
          "name": "amount",
          "type": "uint256"
        },
        {
          "internalType": "address",
          "name": "target",
          "type": "address"
        },
        {
          "components": [
            {
              "internalType": "address",
              "name": "adaptor",
              "type": "address"
            },
            {
              "internalType": "bytes[]",
              "name": "callData",
              "type": "bytes[]"
            }
          ],
          "internalType": "struct HubAdapter.AdaptorCall[]",
          "name": "data",
          "type": "tuple[]"
        }
      ],
      "name": "xCallTargetAdapter",
      "outputs": [],
      "stateMutability": "payable",
      "type": "function"
    }
  ],
  "bytecode": {
    "object": "0x60a060405234801561001057600080fd5b50604051610a65380380610a6583398101604081905261002f91610040565b6001600160a01b0316608052610070565b60006020828403121561005257600080fd5b81516001600160a01b038116811461006957600080fd5b9392505050565b6080516109cd6100986000396000818160730152818161013c01526102bc01526109cd6000f3fe6080604052600436106100345760003560e01c8063367b98101461003957806348c569031461004e578063de4b054814610061575b600080fd5b61004c6100473660046104a4565b6100be565b005b61004c61005c366004610542565b6101cc565b34801561006d57600080fd5b506100957f000000000000000000000000000000000000000000000000000000000000000081565b60405173ffffffffffffffffffffffffffffffffffffffff909116815260200160405180910390f35b6000826040516020016100d191906107f5565b604080517fffffffffffffffffffffffffffffffffffffffffffffffffffffffffffffffe0818403018152908290527f8aac16ba000000000000000000000000000000000000000000000000000000008252915073ffffffffffffffffffffffffffffffffffffffff7f00000000000000000000000000000000000000000000000000000000000000001690638aac16ba9084906101819088908a9060009033908290601e908b9060040161080f565b60206040518083038185885af115801561019f573d6000803e3d6000fd5b50505050506040513d601f19601f820116820180604052508101906101c49190610875565b505050505050565b60007f6b983df01756c6049e85ecef6b0808d165eeb1606579127bbd16f8164474879582604051602401610200919061088e565b604080517fffffffffffffffffffffffffffffffffffffffffffffffffffffffffffffffe08184030181529181526020820180517bffffffffffffffffffffffffffffffffffffffffffffffffffffffff167fffffffff000000000000000000000000000000000000000000000000000000009094169390931790925290517f8aac16ba00000000000000000000000000000000000000000000000000000000815290915073ffffffffffffffffffffffffffffffffffffffff7f00000000000000000000000000000000000000000000000000000000000000001690638aac16ba906102fe90899087908a906000908b9082908a9060040161080f565b6020604051808303816000875af115801561031d573d6000803e3d6000fd5b505050506040513d601f19601f820116820180604052508101906103419190610875565b50505050505050565b803573ffffffffffffffffffffffffffffffffffffffff8116811461036e57600080fd5b919050565b803563ffffffff8116811461036e57600080fd5b7f4e487b7100000000000000000000000000000000000000000000000000000000600052604160045260246000fd5b6040805190810167ffffffffffffffff811182821017156103d9576103d9610387565b60405290565b604051601f82017fffffffffffffffffffffffffffffffffffffffffffffffffffffffffffffffe016810167ffffffffffffffff8111828210171561042657610426610387565b604052919050565b600067ffffffffffffffff83111561044857610448610387565b61047960207fffffffffffffffffffffffffffffffffffffffffffffffffffffffffffffffe0601f860116016103df565b905082815283838301111561048d57600080fd5b828260208301376000602084830101529392505050565b600080600080608085870312156104ba57600080fd5b6104c38561034a565b93506104d160208601610373565b9250604085013567ffffffffffffffff8111156104ed57600080fd5b8501601f810187136104fe57600080fd5b61050d8782356020840161042e565b949793965093946060013593505050565b600067ffffffffffffffff82111561053857610538610387565b5060051b60200190565b600080600080600060a0868803121561055a57600080fd5b61056386610373565b94506105716020870161034a565b9350604086013592506105866060870161034a565b915067ffffffffffffffff608087013511156105a157600080fd5b86601f6080880135880101126105b657600080fd5b6105ce6105c9608088013588013561051e565b6103df565b6080870135870180358083526020808401939260059290921b909101018910156105f757600080fd5b602060808901358901015b60808901358901803560051b0160200181101561077a5767ffffffffffffffff8135111561062f57600080fd5b60407fffffffffffffffffffffffffffffffffffffffffffffffffffffffffffffffe0823560808c01358c01018c0301121561066a57600080fd5b6106726103b6565b6106876020833560808d01358d01010161034a565b815267ffffffffffffffff6040833560808d01358d0101013511156106ab57600080fd5b60808a01358a01823501604081013501603f81018c136106ca57600080fd5b6106da6105c9602083013561051e565b602082810135808352908201919060051b83016040018e10156106fc57600080fd5b604083015b6040602085013560051b8501018110156107615767ffffffffffffffff8135111561072b57600080fd5b8e605f82358601011261073d57600080fd5b6107538f8235860160408101359060600161042e565b835260209283019201610701565b5060208481019190915292865250509283019201610602565b5080925050509295509295909350565b6000815180845260005b818110156107b057602081850181015186830182015201610794565b818111156107c2576000602083870101525b50601f017fffffffffffffffffffffffffffffffffffffffffffffffffffffffffffffffe0169290920160200192915050565b602081526000610808602083018461078a565b9392505050565b63ffffffff88168152600073ffffffffffffffffffffffffffffffffffffffff808916602084015280881660408401528087166060840152508460808301528360a083015260e060c083015261086860e083018461078a565b9998505050505050505050565b60006020828403121561088757600080fd5b5051919050565b602080825282518282018190526000919060409081850190600581811b8701840188860187805b85811015610987577fffffffffffffffffffffffffffffffffffffffffffffffffffffffffffffffc08b85030187528251805173ffffffffffffffffffffffffffffffffffffffff1685528901518985018990528051898601819052908a0190606081881b870181019190870190855b81811015610971577fffffffffffffffffffffffffffffffffffffffffffffffffffffffffffffffa089850301835261095f84865161078a565b948e01949350918d0191600101610925565b505050978a0197945050918801916001016108b5565b50919a995050505050505050505056fea264697066735822122052c7cebdfe6ac637256402c375f45196fb00a37106315f79f7197ccdf42794d464736f6c634300080f0033",
    "linkReferences": {}
  },
  "methodIdentifiers": {
    "connext()": "de4b0548",
    "updateGreeting(address,uint32,string,uint256)": "367b9810",
    "xCallTargetAdapter(uint32,address,uint256,address,(address,bytes[])[])": "48c56903"
  },
  "id": 29
}