{
  "abi": [
    {
      "inputs": [],
      "name": "NULL",
      "outputs": [
        {
          "internalType": "bytes29",
          "name": "",
          "type": "bytes29"
        }
      ],
      "stateMutability": "view",
      "type": "function"
    }
  ],
  "bytecode": {
    "object": "0x60c9610038600b82828239805160001a607314602b57634e487b7160e01b600052600060045260246000fd5b30600052607381538281f3fe730000000000000000000000000000000000000000301460806040526004361060335760003560e01c8063f26be3fc146038575b600080fd5b605e7fffffffffffffffffffffffffffffffffffffffffffffffffffffffffff00000081565b6040517fffffffffffffffffffffffffffffffffffffffffffffffffffffffffff000000909116815260200160405180910390f3fea2646970667358221220c07d5a0628dd9ab722f736cdbd7fd8269bb56111ddfad23bec086d3931f0e3c564736f6c634300080f0033",
    "linkReferences": {}
  },
  "methodIdentifiers": {
    "NULL()": "f26be3fc"
  },
  "id": 17
}